:100000000C945C000C9479000C9479000C947900A9
:100010000C9479000C9479000C9479000C9479007C
:100020000C9479000C9479000C9479000C9479006C
:100030000C9479000C9479000C9479000C9479005C
:100040000C9421010C9479000C9479000C947900A3
:100050000C9479000C9479000C9479000C9479003C
:100060000C9479000C947900000000080002010053
:100070000003040700000000000000000000000072
:10008000250028002B0000000000240027002A0083
:10009000040404040404040402020202020203032E
:1000A0000303030301020408102040800102040836
:1000B000102001020408102011241FBECFEFD8E049
:1000C000DEBFCDBF11E0A0E0B1E0ECE0F5E002C0A2
:1000D00005900D92AC30B107D9F721E0ACE0B1E06A
:1000E00001C01D92A531B207E1F70E946B010C948B
:1000F00084020C94000090E0FC01E859FF4F249129
:10010000FC01EC55FF4F3491FC01E057FF4FE491A7
:10011000EE23C9F0222339F0233001F1A8F4213075
:1001200019F1223029F1F0E0EE0FFF1FE458FF4FE4
:10013000A591B4918FB7F894EC91611126C03095D8
:100140003E233C938FBF08952730A9F02830C9F093
:10015000243049F7809180008F7D03C0809180001A
:100160008F7780938000DFCF84B58F7784BDDBCF1E
:1001700084B58F7DFBCF8091B0008F778093B000E6
:10018000D2CF8091B0008F7DF9CF3E2BDACF3FB731
:10019000F8948091110190911201A0911301B091F6
:1001A000140126B5A89B05C02F3F19F00196A11D8B
:1001B000B11D3FBFBA2FA92F982F8827BC01CD01B1
:1001C000620F711D811D911D42E0660F771F881F10
:1001D000991F4A95D1F708958F929F92AF92BF923F
:1001E000CF92DF92EF92FF920E94C7004B015C0119
:1001F00082E3C82ED12CE12CF12C0E94C700681993
:1002000079098A099B09683E734081059105A8F325
:1002100021E0C21AD108E108F10888EE880E83E0D7
:10022000981EA11CB11CC114D104E104F10429F7EA
:10023000FF90EF90DF90CF90BF90AF909F908F9006
:1002400008951F920F920FB60F9211242F933F9390
:100250008F939F93AF93BF9380910D0190910E0167
:10026000A0910F01B091100130910C0123E0230FF8
:100270002D3758F50196A11DB11D20930C018093D7
:100280000D0190930E01A0930F01B0931001809186
:10029000110190911201A0911301B09114010196E6
:1002A000A11DB11D8093110190931201A093130120
:1002B000B0931401BF91AF919F918F913F912F9176
:1002C0000F900FBE0F901F90189526E8230F0296EF
:1002D000A11DB11DD2CFCF93DF93CDB7DEB760970D
:1002E0000FB6F894DEBF0FBECDBF789484B58260A0
:1002F00084BD84B5816084BD85B5826085BD85B5CA
:10030000816085BD80916E00816080936E00109247
:1003100081008091810082608093810080918100C2
:100320008160809381008091800081608093800053
:100330008091B10084608093B1008091B0008160B1
:100340008093B00080917A00846080937A008091DD
:100350007A00826080937A0080917A008160809335
:100360007A0080917A00806880937A001092C100B0
:10037000A0E0B1E02CE031E08D919D919927FC0146
:10038000EC55FF4F649180579F4FFC018491882367
:10039000A1F090E0880F991FFC01EA57FF4F4591AB
:1003A0005491FC01E458FF4F859194918FB7F894D4
:1003B000FA019081962B90838FBF2A173B07E1F6B5
:1003C0005AE0A52EB12C6E01F1E1CF0ED11C60E0F8
:1003D000862E60E0962E61E082E00E947B0061E064
:1003E00083E00E947B0010E000E0F12CE12CC701CB
:1003F000B5010E945C022AE0E216F1040CF08B01C8
:10040000FE0139969F01AC014170552741935193EC
:1004100095958795EC15FD05B1F7FE013196C8015C
:10042000817099278193919315950795E217F307AA
:10043000B1F760E082E00E947B0061E083E00E940F
:100440007B00698587E00E947B006B8586E00E94C7
:100450007B006D8585E00E947B006F8584E00E94B3
:100460007B000E94EC0061E082E00E947B0060E083
:1004700083E00E947B00698187E00E947B006B81A2
:1004800086E00E947B006D8185E00E947B006F8189
:1004900084E00E947B000E94EC008FEFE81AF80ACB
:1004A000E4E6EE16F10409F0A2CF8114910409F4F8
:1004B00092CF0E9400008FCF97FB072E16F4009476
:1004C00007D077FD09D00E94700207FC05D03EF4EA
:1004D000909581959F4F0895709561957F4F0895F0
:1004E000AA1BBB1B51E107C0AA1FBB1FA617B7075A
:1004F00010F0A61BB70B881F991F5A95A9F7809576
:0C0500009095BC01CD010895F894FFCF48
:0C050C00040005000600070002000300C8
:00000001FF
