:100000000C945C000C9479000C9479000C947900A9
:100010000C9479000C9479000C9479000C9479007C
:100020000C9479000C9479000C9479000C9479006C
:100030000C9479000C9479000C9479000C9479005C
:100040000C94C7000C9479000C9479000C947900FE
:100050000C9479000C9479000C9479000C9479003C
:100060000C9479000C947900000000080002010053
:100070000003040700000000000000000000000072
:10008000250028002B0000000000240027002A0083
:10009000040404040404040402020202020203032E
:1000A0000303030301020408102040800102040836
:1000B000102001020408102011241FBECFEFD8E049
:1000C000DEBFCDBF11E0A0E0B1E0ECE8F4E002C09B
:1000D00005900D92AE30B107D9F721E0AEE0B1E066
:1000E00001C01D92A731B207E1F70E9411010C94E3
:1000F00044020C94000090E0FC01E859FF4F249169
:10010000FC01EC55FF4F3491FC01E057FF4FE491A7
:10011000EE23C9F0222339F0233001F1A8F4213075
:1001200019F1223029F1F0E0EE0FFF1FE458FF4FE4
:10013000A591B4918FB7F894EC91611126C03095D8
:100140003E233C938FBF08952730A9F02830C9F093
:10015000243049F7809180008F7D03C0809180001A
:100160008F7780938000DFCF84B58F7784BDDBCF1E
:1001700084B58F7DFBCF8091B0008F778093B000E6
:10018000D2CF8091B0008F7DF9CF3E2BDACF1F9276
:100190000F920FB60F9211242F933F938F939F933B
:1001A000AF93BF938091130190911401A091150119
:1001B000B09116013091120123E0230F2D3758F52D
:1001C0000196A11DB11D20931201809313019093FC
:1001D0001401A0931501B093160180910E01909126
:1001E0000F01A0911001B09111010196A11DB11D47
:1001F00080930E0190930F01A0931001B093110111
:10020000BF91AF919F918F913F912F910F900FBE12
:100210000F901F90189526E8230F0296A11DB11D7F
:10022000D2CF789484B5826084BD84B5816084BD6A
:1002300085B5826085BD85B5816085BD80916E0084
:10024000816080936E0010928100809181008260B5
:1002500080938100809181008160809381008091F2
:1002600080008160809380008091B10084608093E1
:10027000B1008091B00081608093B00080917A00DD
:10028000846080937A0080917A00826080937A0003
:1002900080917A00816080937A0080917A008068F2
:1002A00080937A001092C100A0E0B1E08D919D9101
:1002B0009927FC01EC55FF4F249180579F4FFC017B
:1002C0008491882399F090E0880F991FFC01EA57E8
:1002D000FF4FC591D491FC01E458FF4F8591949153
:1002E0008FB7F894E881E22BE8838FBFF1E0AC3060
:1002F000BF07E1F6E3EBF0E02491EFE9F0E0849151
:100300008823C1F090E0880F991FFC01EA57FF4F46
:10031000C591D491FC01E458FF4FA591B4919FB7CA
:10032000F8948881E22FE0958E2388838C91E823CE
:10033000EC939FBF21E4322E44244A9433E0532EA1
:10034000612C712C40E0842E40E0942E30927C0091
:1003500080917A00806480937A0080917A0086FD93
:10036000FCCF80917800A0917900BA2FA82F26E0C9
:1003700030E00E943D02A30192010E94ED0169015B
:10038000E90190E0A92E91E0B92E10E000E00C17F1
:100390001D078CF08601000F111F00501F4FC63043
:1003A000D105A4F4F80180810E5F1F4F60E00E9428
:1003B0007B002196F4CFF5018081F2E0AF0EB11CF5
:1003C00061E00E947B000F5F1F4FE1CF8114910419
:1003D00009F4BCCF0E940000B9CF052E97FB1EF494
:1003E00000940E94040257FD07D00E940C0207FCF3
:1003F00003D04EF40C94040250954095309521950D
:100400003F4F4F4F5F4F0895909580957095619540
:100410007F4F8F4F9F4F0895A1E21A2EAA1BBB1B3F
:10042000FD010DC0AA1FBB1FEE1FFF1FA217B307C0
:10043000E407F50720F0A21BB30BE40BF50B661FD6
:10044000771F881F991F1A9469F76095709580959A
:1004500090959B01AC01BD01CF010895A29FB00111
:10046000B39FC001A39F700D811D1124911DB29FE8
:10047000700D811D1124911D08950E942E02B7FF59
:0C0480000895821B930B0895F894FFCFA1
:0E048C00020003000400050006000700000047
:00000001FF
