:100000000C945C000C9479000C9479000C947900A9
:100010000C9479000C9479000C9479000C9479007C
:100020000C9479000C9479000C9479000C9479006C
:100030000C9479000C9479000C9479000C9479005C
:100040000C9463010C9479000C9479000C94790061
:100050000C9479000C9479000C9479000C9479003C
:100060000C9479000C947900000000080002010053
:100070000003040700000000000000000000000072
:10008000250028002B0000000000240027002A0083
:10009000040404040404040402020202020203032E
:1000A0000303030301020408102040800102040836
:1000B000102001020408102011241FBECFEFD8E049
:1000C000DEBFCDBF11E0A0E0B1E0E6EAF4E002C09F
:1000D00005900D92AE31B107D9F721E0AEE1B1E064
:1000E00001C01D92A732B207E1F70E94AD010C9446
:1000F00051020C94000090E0FC01E859FF4F24915C
:10010000FC01EC55FF4F3491FC01E057FF4FE491A7
:10011000EE23C9F0222339F0233001F1A8F4213075
:1001200019F1223029F1F0E0EE0FFF1FE458FF4FE4
:10013000A591B4918FB7F894EC91611126C03095D8
:100140003E233C938FBF08952730A9F02830C9F093
:10015000243049F7809180008F7D03C0809180001A
:100160008F7780938000DFCF84B58F7784BDDBCF1E
:1001700084B58F7DFBCF8091B0008F778093B000E6
:10018000D2CF8091B0008F7DF9CF3E2BDACF3FB731
:10019000F8948091230190912401A0912501B091C0
:1001A000260126B5A89B05C02F3F19F00196A11D79
:1001B000B11D3FBFBA2FA92F982F8827BC01CD01B1
:1001C000620F711D811D911D42E0660F771F881F10
:1001D000991F4A95D1F708958F929F92AF92BF923F
:1001E000CF92DF92EF92FF926B017C010E94C700D9
:1001F0004B015C01C114D104E104F104B9F00E9487
:10020000C700681979098A099B09683E734081050E
:10021000910580F321E0C21AD108E108F10888EEC7
:10022000880E83E0981EA11CB11CE4CFFF90EF90D4
:10023000DF90CF90BF90AF909F908F900895AF9236
:10024000BF92CF92DF92EF92FF920F931F93CF93C3
:10025000DF935B016A01880F991FEC01C050DF4FEB
:100260007E0110E000E0F7018081F2E0EF0EF11C6A
:1002700061E00E947B000F5F1F4FA016B10699F747
:100280000D2C000CEE08FF08C701B6010E94EC001F
:10029000B12CA12C8881229660E00E947B008FEF18
:1002A000A81AB80A0A151B05A9F7C701B601DF91FC
:1002B000CF911F910F91FF90EF90DF90CF90BF9063
:1002C000AF900C94EC001F920F920FB60F92112476
:1002D0002F933F938F939F93AF93BF9380911F0171
:1002E00090912001A0912101B091220130911E0135
:1002F00023E0230F2D3758F50196A11DB11D209342
:100300001E0180931F0190932001A0932101B093BF
:1003100022018091230190912401A0912501B091A7
:1003200026010196A11DB11D809323019093240104
:10033000A0932501B0932601BF91AF919F918F911A
:100340003F912F910F900FBE0F901F90189526E8A8
:10035000230F0296A11DB11DD2CF789484B582607F
:1003600084BD84B5816084BD85B5826085BD85B559
:10037000816085BD80916E00816080936E001092D7
:100380008100809181008260809381008091810052
:1003900081608093810080918000816080938000E3
:1003A0008091B10084608093B1008091B000816041
:1003B0008093B00080917A00846080937A0080916D
:1003C0007A00826080937A0080917A0081608093C5
:1003D0007A0080917A00806880937A001092C10040
:1003E000C0E0D1E00EE111E0899199919927FC01DB
:1003F000EC55FF4F249180579F4FFC018491882337
:1004000099F090E0880F991FFC01EA57FF4FA591E2
:10041000B491FC01E458FF4F859194918FB7F89403
:10042000EC91E22BEC938FBF60E0FE01329780816C
:100430000E947B000C171D07B9F680E1C82ED12C55
:1004400090E0A92E90E0B92E09E110E0CFE0D0E0D5
:100450007601EC1AFD0A912C812C8C169D064CF429
:10046000A801B701C4010E941F01FFEF8F1A9F0A64
:10047000F4CF4E0181E0881A9108E401A801B70188
:10048000C4010E941F01E1E08E1A9108B8F7075ECF
:100490001F4F2097E9F6A114B104B1F20E940000A9
:0604A000D3CFF894FFCF5A
:1004A600000001000200030004000500060007002A
:0E04B600080009000A000B000C000D001300E6
:00000001FF
